:1000000000120020D907000017460000C5070000B5
:10001000C5070000C5070000C5070000000000007C
:100020000000000000000000000000005109000076
:10003000C507000000000000ED080000C507000033
:10004000ED0A0000ED0A0000ED0A0000ED0A0000D4
:10005000ED0A0000ED0A0000ED0A0000ED0A0000C4
:10006000ED0A0000ED0A0000ED0A0000ED0A0000B4
:10007000ED0A0000ED0A0000ED0A0000ED0A0000A4
:10008000ED0A0000ED0A0000ED0A0000ED0A000094
:10009000ED0A0000ED0A0000ED0A0000ED0A000084
:1000A000ED0A0000ED0A0000ED0A0000ED0A000074
:1000B000ED0A0000ED0A0000ED0A0000ED0A000064
:1000C000ED0A0000ED0A0000ED0A0000ED0A000054
:1000D000ED0A0000ED0A0000ED0A00001FB5022342
:1000E0008DF800008DF80110CDF804D002938DF842
:1000F0000C3007489DF80C30826843F002038DF8FD
:100100000C3094686923012201A9A04704B010BDF6
:100110001450000070B588B0344D284604F085FDB9
:1001200028B9334804F088F9002008B070BD0023D6
:1001300001248DF804308DF810300DF10703CDE95E
:10014000053401AA0723029203948DF81C309DF810
:100150001C30AA6843F002038DF81C3096686923AE
:10016000022202A92846B0479DF80710214804F052
:1001700063F99DF80730D12B01D01F48D2E7112138
:100180007E20FFF7ABFF04F070F828214020FFF736
:10019000A5FF04F06AF808215220FFF79FFF04F042
:1001A00064F8A8215320FFF799FF04F05EF80421BA
:1001B0005420FFF793FF04F058F821465520FFF72D
:1001C0008DFF04F052F821465720FFF787FF04F017
:1001D0004CF802217A20FFF781FF04F046F808214D
:1001E0007B20FFF77BFF04F040F8FEE7145000008F
:1001F00020530000335300004B530000014B1B6899
:10020000184700BF00000020014B1860704700BF76
:100210000000002030B585B004460D4610220021B4
:10022000684604F026FE02238DF802302A46044B6D
:1002300001932146684603F0BBFD05B030BD00BF09
:10024000FD01000080B505460E461746984603F0AE
:1002500011FB034604F088FEDFF81890044649F8C5
:100260000030424630463946A84754F8090000F0AD
:1002700027FB00BF080000002DE9F047058B04466E
:100280002807904611D4022905F0070540F0CC80DC
:10029000204604F0DEF878B10138218B042811D80B
:1002A000DFE800F0C2106D85950001290CBF45F014
:1002B000100545F02005258388F31188BFF36F8F63
:1002C000BDE8F08701F0070AAA4500F0A5800027E5
:1002D000B9463E46A368002B00F0BC8041F00801FF
:1002E000218388F31188BFF36F8FA168002900F084
:1002F000BA800D68002900F0B680D1F8048033463A
:1003000052462046C047002D76D02B6829461D4610
:10031000F0E701F007035A1F012A1BD8002221F041
:100320000701062B276889B2C4E9002209D13B46A0
:1003300003E0628B013262831B68002BF9D141F02C
:1003400002012183204604F084F800287AD041F08D
:10035000200176E0042B0AD121F0070189B2218324
:10036000204604F076F810B141F020012183218B62
:1003700001F0070AAA454FD00027B946AAE723692A
:1003800021F0070141F00601062DD3F800902183EA
:100390002DD1B9F1000F3FD041F00801218388F33E
:1003A0001188BFF36F8F3A492046C84729E021F0F2
:1003B0000701236941F0040189B2042DD3F80490A8
:1003C0002183E6D000273E464FF0040A82E721F061
:1003D0000701236941F0050189B2052DD3F8089082
:1003E0002183D6D000273E464FF0050A72E700274A
:1003F0003E464FF0060A6DE72B4687E7B9F1000F3E
:10040000D1D1EFF31188202383F31288BFF36F8FCC
:10041000238B23F008032383258BEA062ED525F0B2
:100420001003238305F007056669218B002EBFF6B4
:1004300070AF00232768C4E9003321F0070141F0C1
:1004400001012183218B01F0070AAA454FF0000921
:100450007FF440AF002F9CD041F00801218388F346
:100460001188BFF36F8F002FC8D03D6839463346DF
:100470005246204604F019F82F46F4E7AB067FF504
:100480001BAF25F02003238305F0070500E700BF1D
:10049000D7440000014B0360002070472852000041
:1004A00008B5044803F0C8FFBDE80840024803F05F
:1004B000C3BF00BF5A5300008F53000030BFFFF787
:1004C000FDBF00BF2DE9F0410B4EDFF8308006EB99
:1004D0000807CC1B054632460949204604F0BBFC00
:1004E000A01942460021083C04F0C3FCC5F8A44012
:1004F00007F10800BDE8F0810000000004000000E2
:1005000014520000054B5A699B689A421FBF044A67
:10051000536843F080535360704700BF08040020C5
:1005200000ED00E070B5264B15469A6A12F0100FE8
:100530009A6A14BF1124102412F0080F9A6A18BF87
:100540001224920706460AD5586B9A6A140634D5C7
:1005500019B19A6A22F080029A62132401E06FF0C6
:100560001500174B9A6A12F0010F9A6A18BF1424EB
:1005700012F0200F9A6A18BF1524D20602D49B6A83
:100580009B070AD50E4B5B68190506D5314600F06E
:1005900063FA10B180F309880224094B9A6A920623
:1005A00042BF5A6A22F400525A629A6A42F0FF022B
:1005B0009A6200232B70204670BD6FF01500CCE7C7
:1005C00000ED00E0134B9A6A12F0007F9A6A14BFA4
:1005D0001E201D2012F0807F9A6A18BF1F2012F47F
:1005E000002F9A6A18BF212012F4802F9A6A18BF30
:1005F000222012F4003F9A6A18BF232012F4803F91
:100600009A6A6FEA02426FEA12429A6218BF242085
:10061000704700BF00ED00E010B5194B0246986A24
:100620009C6A10F4805F14BF1720162014F4006F2A
:100630009C6A18BF1820A40509D5986B986A000415
:1006400004D51AB19A6A22F400429A6219200C4B1E
:100650009A6A12F4806F9A6A18BF1A20D2050CD4D5
:100660009B6A13F4005F18BF1C20054A936A43F489
:100670007F43936200230B7010BD1B20F5E700BF82
:1006800000ED00E0F0B5484B5B688BB00446C3F367
:100690000803002585F31188BFF36F8F02F07F40B8
:1006A000B0F17F4F11D102F00C0008280DD01007D7
:1006B0004CBF0C4601250022033B8DF80720032B7D
:1006C00005D8DFE803F0246367602C46F3E70023D6
:1006D0009DF80720CAB902AE04F1200720686168BE
:1006E000324603C20834BC421646F7D1099A002D9F
:1006F00054D0C2F3080121B96FEA52226FEA4222B4
:10070000099202A9184603F07CFF0BB0F0BD264BFE
:10071000DA6A9107DBD4DA6A002AD8DBDA6A520097
:10072000D5D55A69A16942F480725A61BFF34F8FDF
:10073000BFF36F8F5A6931F8021C22F480725A613C
:10074000BFF34F8FBFF36F8F4DF6027291420AD005
:100750009A6AD2B24AB10DF1070201212046FFF791
:10076000E1FE0346B4E72368B2E79A6A12F47F4FCA
:1007700005D00DF107010120FFF74EFFF1E79B6A5D
:10078000B3F5803FA3D3FFF71DFFEAE70DF10702A2
:100790000021E3E70DF107010020EDE722F4FF72ED
:1007A00022F00102ACE700BF00ED00E0044B5A6903
:1007B00042F010025A615A6922F008025A617047E9
:1007C00000ED00E0EFF30880EFF3098101B5724618
:1007D000FFF758FF01BD00BF002080F31488BFF36E
:1007E0006F8F114880F3088800201049087001F0CD
:1007F0001DFB00200E490860BFF34F8F00F02EF85C
:10080000202080F311880B484FF40461401880F3D6
:100810000988EFF314800221084380F31488BFF3A2
:100820006F8F00F0E9F80000001200203C04002067
:1008300094ED00E0400400200749D1F89020002307
:10084000C2F307221846934200DB7047C1F8983084
:10085000C1F8A0000133F6E700ED00E008B572B67C
:10086000002383F31388FFF7E7FF144B4FF0FF32A9
:10087000C3F88020C3F88420C3F88820C3F88C20F4
:10088000C3F89020C3F89420C3F89820C3F89C20A4
:10089000C3F88021C3F88421C3F88821C3F88C21D0
:1008A000C3F89021C3F89421C3F89821C3F89C2180
:1008B00062B6BFF34F8FBFF36F8F08BD00E100E05A
:1008C000084B9B6883420BD1EFF3058343B1064B82
:1008D0005A6842F080525A605A6A22F400425A62C0
:1008E00002F0CEBF0804002000ED00E015498A6840
:1008F0004FF030001044EFF3098C80E8F01F202007
:1009000080F31288BFF36F8F0F4F4FF000664A6974
:100910008A603E60D2F8A4000C4C2060D2F8A80097
:100920000023C2F8A83080F3118804B5104600F007
:10093000FBF8BDE8044002F1300090E8F01F8CF3B2
:10094000098870470804002004ED00E0A802002098
:100950001EF0040F0CBFEFF30880EFF309808169EC
:1009600011F8021C0229FFD001B5724603F04FFEB8
:1009700001BD00BF40B2002807DB044A4109012342
:1009800000F01F00834042F82130704700E100E092
:10099000054B420900F01F0053F82220012303FAFF
:1009A00000F01040704700BF00E100E040B20028B6
:1009B000A8BF00F1604001F10101B8BF064B4FEA4A
:1009C0004111ACBF00F5614000F00F00C9B2B4BFE7
:1009D000195480F80013704714ED00E0044B054AE9
:1009E00023F07F039360BFF34F8FBFF36F8F704788
:1009F0000000000000ED00E008B5FFF7EFFF074A38
:100A0000D2F8883023F47003C2F8883002F08CFBEF
:100A100003F07AF800F05EF802F0CEFB00ED00E0A3
:100A200042F8203C009B42F81C3C0A49019B42F8DA
:100A3000183C029B42F8143C21F001014FF08073F6
:100A400042F8043C42F8081C0023203A0265C0F832
:100A5000A8307047450200000A4A0346906878B102
:100A600013F1160FD0F8940005D0A0F140029A427D
:100A700005D8834203D2814228BF0020704700205E
:100A8000704700BF0804002008B515460A4A0B4B02
:100A90009060D0F8A4201A600E4600F045F82C466D
:100AA00086F309880020064B984720460021002243
:100AB0000023044C204700BF08040020A8020020A7
:100AC0002D46000045020000014B10221A617047BC
:100AD00000ED00E0044800232021C2180133272B39
:100AE00082F80013F9D1704700E100E008B5EFF398
:100AF0000583064A103B02EBC30152F833004968F4
:100B00008847BDE80840FFF7FDBC00BF3450000037
:100B1000024B034A0348012100F078B8000001208D
:100B20000000002028520000D0F89420054B403AE5
:100B30001A60054A4021C3E901121846012100F05C
:100B40006FB800BFAC02002000000B15084AC2F8C5
:100B500098000B6823F01F03034343F01003C2F80F
:100B60009C308B6843F00103C2F8A030704700BF8F
:100B700000ED00E02DE9F043DFF8608085B00E461F
:100B80001F4604464FF00009B14523DA6068D8B12A
:100B90003FB1411E08421BD11F2819D923681942B1
:100BA00016D12368019303F064FDA3680343039304
:100BB000D8F89050C5F30725D0B2013DA84207D818
:100BC00001A9FFF7C3FF421C09F101090C34DBE75F
:100BD0006FF01502104605B0BDE8F08300ED00E0AF
:100BE000044B0522C3F89420BFF34F8FBFF36F8FE0
:100BF000704700BF00ED00E0BFF35F8F024B0022A3
:100C0000C3F89420704700BF00ED00E010B5034C1E
:100C100001232278FFF7AEFF207010BD38040020BA
:100C200008B50B4A00231278FFF7A4FF10F1160F46
:100C300007D0084A0021D2F89030C3F30723984226
:100C400000DB08BDC2F89800C2F8A0100130F2E73E
:100C50003804002000ED00E02DE9F043534B544CE4
:100C6000D3F890302568C3F307239D4285B000F286
:100C70009A80FFF7C1FF00200C2685421AD14D4C07
:100C80004D4F25706846FFF705FCDFF82081DFF83F
:100C90002C9106460025AE4213D12378434900200B
:100CA000D1F89020C2F30722934276DBFFF798FF3A
:100CB000002042E0616806FB0011FFF747FF0130AA
:100CC000DBE7009800EB05114FEA051CCB683B40C1
:100CD000B3F5000F48D00AD8B3F5001F30D0B3F5F4
:100CE000800F36D0B3F5801F10D00135D3E7B3F1B4
:100CF000807F42D0B3F1007FF7D150F80C30886884
:100D00004A6803F0B6FC40F4802009E050F80C304B
:100D100088684A6803F0ADFC40F0885040F4302009
:100D2000CDE901230390D8F890302078C3F307234E
:100D3000013B98422AD96FF0150005B0BDE8F08359
:100D400050F80C3088684A6803F093FC40EA0900C8
:100D5000E6E750F80C3088684A6803F08AFC40F0F7
:100D6000C06040F40030DBE750F80C3088684A6817
:100D700003F07FFC40F08270D2E750F80C308868B6
:100D80004A6803F076FC40F08870C9E701A9FFF7D4
:100D9000DDFE237801332370A7E7C1F89830C1F84E
:100DA000A00001337CE74FF0FF30C6E700ED00E024
:100DB00034520000380400200000F0FF0000081149
:100DC00008B5024B1B689847002008BDB8020020F8
:100DD000034B044A1860937843F002039370704702
:100DE000B80200200400002008B50649064821F09A
:100DF0000701C1F1005202F5803203F0C3FA00206E
:100E000008BD00BF47120020BC020020044A012395
:100E1000C2F840354FF080420020C2F87835704764
:100E200000E0014020B1034B800143F0010318476B
:100E3000704700BF20520000084B70B5C31A0D4622
:100E400007499B10044659430648402203F02FFCF3
:100E50002B4601462046BDE870401847DC020020C2
:100E6000B76DDBB6B44F000073B50C4C0C4A402391
:100E7000041B00930D460B460A49A4106143064625
:100E8000094803F040FC011E05DA30462B4602B04B
:100E9000BDE87040184702B070BD00BFDC02002002
:100EA00071470000B76DDBB6B44F0000002270B58B
:100EB000012104461046FFF779FD0F4801F09EF925
:100EC0000E4B984215D101F0A9F926690C4930461C
:100ED00003F00EFB00280BDB01253564246908496B
:100EE00004F11C0003F004FB002801DBE564002092
:100EF00070BD6FF00400FBE7551000000000AD0B63
:100F0000545200001FB500220123CDE90223094AF3
:100F1000CDF800D06B46CDF804D003F022FC0028B9
:100F200005DB4FF480420023684602F0E1F905B08A
:100F30005DF804FB8947000010B5074C23782BB9F6
:100F40004FF4A57003F06CFE01232370BDE8104040
:100F5000002001F075B900BF3904002010B5EFF38F
:100F60001184202383F31288BFF36F8F074A13681D
:100F700023F00201DB07116002D4012003F02BFDF6
:100F800084F31188BFF36F8F10BD00BF2C030020C6
:100F900030B4104B0C2202FB003301460020D3E991
:100FA0000E529863EFF31180202484F31288BFF36C
:100FB0006F8F1C6C04F0C00444F002041C6480F3C6
:100FC0001188BFF36F8F1DB12B46034830BC184703
:100FD00030BC7047DC020020B44F000010B4EFF3C7
:100FE0001182202383F31288BFF36F8F17480168A3
:100FF00041F002040460C80707D482F31188BFF3EC
:101000006F8F012010BC01F01BB94FF08041D1F867
:101010000C04D1F80C14C907EFD5EFF3118083F35A
:101020001288BFF36F8F0A490B6C03F0C00343F0C3
:1010300002030B6480F31188BFF36F8F82F3118872
:10104000BFF36F8F002010BCFFF7A2BF2C0300205E
:10105000DC02002010B1012804D07047034B1B6C48
:101060005B0701D1FFF794BF704700BFDC0200208F
:101070002DE9F0413849BFF35B8F0746012251E863
:10108000003F41E800200028F9D1BFF35B8F33B95E
:10109000324933484B60CB608A6003F03CFA7B1ED8
:1010A000012B2BD8012F07D14FF08043D3F81C34EC
:1010B00003F00303012B21D003F0F3FD0546F8B93B
:1010C000284B1B78E3B14FF080430222C3F808237A
:1010D0000646DFF894804FF08044D4F81824D4F802
:1010E0001834D20315D503F00303012B01D0012FCF
:1010F0000FD155B386F31188BFF36F8FBDE8F08130
:10110000EFF31186202383F31288BFF36F8F01253D
:10111000DFE7ADB1304603F09DFAD4F81835002B67
:10112000DBD1D4F80421002AD7D0C4F80431D4F894
:1011300004310123C4F81835C8F88031A360CCE726
:101140000021212003F01DFEE7E74FF0804302223B
:10115000C3F80423D2E700BFD8020020C802002051
:10116000F80200203C04002000E100E008B5074838
:1011700003F05BFD38B10648FFF72AFE0448FFF78D
:1011800043F8002008BD6FF01200FBE7F44F0000A9
:10119000951100000A2838B5074D044604D1AB6804
:1011A0000D215B6828469847AB6803485B68E1B24D
:1011B0009847204638BD00BFF44F0000430970B582
:1011C00007D10B4B596821B101250C68094E8540A8
:1011D00001B970BD8A682A4002D04B6830469847F2
:1011E0001CB1236821461C46F2E72346FAE700BFFC
:1011F00030030020D44F00002DE9F043476840F24F
:101200000636D0063B7B87B002EA060654BFC2F31F
:101210004010032001F01F05B6F5837F144645EA10
:1012200043158DF8030042D00FD8062E18D007D8EA
:10123000B6B1022E3DD06FF0150007B0BDE8F083C7
:10124000B6F5807FF7D101260AE040F202229642ED
:1012500031D0B6F5407F30D0B6F5007FEBD1022615
:1012600022032CD57A6801238B40C2F808353B69EC
:101270006BBB05F01F026D0976D1920002F1A0420E
:1012800084F48031D2F80037C1F30041C4F3404404
:1012900023F4E16344EA410423F007031C4344EAD6
:1012A000800444EA0624C2F800470020C5E7072668
:1012B000D6E70426D4E70526D2E70326D0E7630362
:1012C00041BF01237A688B40C2F80C35CFE7103755
:1012D0000DF102022946384601F066FA14F4403F47
:1012E00080460CD12946384603F0E7FB214B984550
:1012F000DBD19DF80210384601F096FAD5E701AB34
:101300004FF0000903AA29463846CDE90439CDE952
:101310000199CDF80C9001F017F9164B98428AD13B
:1013200014F4003315D09DF803308DF80E3084F49A
:101330008034C4F300444B4603AA294638468DF84E
:101340000C608DF80D4001F0B3F90A4B9842CDD0F6
:1013500071E7CDE9043303AA0DF1030329463846AA
:10136000039301F0F1F8F0E702F5E07253F8223050
:10137000FFDE00BF0000AD0B38B545682B69B3B187
:101380001035284601F046FA044680B90146284641
:1013900001F01CFA084B98420BD108492246284616
:1013A00001F0FCF9224605210620FFF7FFFA002094
:1013B00038BD6FF00400FBE70000AD0BBD1100006D
:1013C000F0B516464268107B01F01F0444EA401451
:1013D000106987B000286ED0B6F5001F02F1100525
:1013E00006D12146284603F06AFB002007B0F0BD75
:1013F00001A80027B6F5800F0197476038D1B3F1F7
:10140000007F14BF052304238DF804300023CDE9A9
:1014100004030393936823FA01F111F001010DF124
:1014200003073AD1B6F1A07F37D104F01F03620958
:1014300003F5E07345D14FF0A04252F82330DB07AB
:101440002BD43A462146284601F0AEF91E4B98426D
:1014500019D0029703AA2146284601F075F81B4BC4
:1014600098422BD101222146284601F0EDF9BCE734
:10147000B3F1C06F05D0B3F1007F14BF0123022385
:10148000C2E70323C0E73946284601F0D5F90F4BE0
:101490009842DED06FF00B00A8E73A462146284676
:1014A00001F082F9094B9842D4D19DF803102846E7
:1014B00001F0BAF9CEE76FF0850097E76FF01500FD
:1014C00094E751F82330FFDE0400AD0B0000AD0BB4
:1014D00002780B69012A08D0022A08D04AB9064AC4
:1014E0005A6203F1140001F0CFBE044AF8E7044A3F
:1014F000F6E7044AF4E700BF0000AD0B0100AE0BB5
:101500000200AE0B0100AD0B2DE9F04FD0F81090AA
:10151000D0F8048085B005460C461746029309F1C1
:10152000040A4FF0FF324FF0FF33504601F0E0FE67
:1015300009F1140B00230022584601F0D9FE404661
:1015400001F0EEFB7B1E00260393B74201D8002377
:1015500022E0039B217AB34283BF237D83F00403FF
:10156000C3F3800300230193029B0093D4E900237B
:10157000284600F04DF8034670B94FF4804200232E
:10158000584601F0B5FE98B1404601F0D9FB284617
:1015900000F02CF86FF004034046029301F0D0FBFA
:1015A000504601F071FE029B184605B0BDE8F08F71
:1015B000D9F82430034A934204F10C04EAD10136ED
:1015C000C3E700BF0000AD0B08B503464068826961
:1015D00000F1080101F044FB034B984214BF6FF087
:1015E0000F00002008BD00BF0000AD0B08B5436828
:1015F0001B68D3F80805D3F80C1501F097FC034BD2
:10160000984214BF6FF00F00002008BD0000AD0B22
:101610002DE9F04186B00C4647689DF834801546A8
:10162000002112220DF106001E4603F022FCBDF837
:1016300030208DF8052004F0010314F008028DF825
:1016400004300296049519D1A10704D4B8F1000F13
:1016500012D19BB9202201A9384601F08DFB0A4B1B
:1016600098420ED00B3398420CBF6FF00F006FF012
:10167000040006B0BDE8F0814022ECE76FF0850081
:10168000F7E70020F5E700BF0000AD0B2DE9F043C0
:101690005B4E5C4F00EB810140F2FF15814202D1AD
:1016A0000020BDE8F083046814F4804FC4F3C32C19
:1016B000C4F3080340F09080240E16F80CC0AB422F
:1016C00008BF4FF0FF33192C00F28980DFE804F0E7
:1016D0000D13191C1F251C8787878736638787870B
:1016E000878787878787667B7E81C2F80C355C1C7D
:1016F0005ED10430D2E7C2F814355C1CF9D0002466
:101700005FE0C2F80835F2E7C2F81035F5E75C1C77
:10171000C2F80835EDD0002404E05C1CC2F80C359A
:10172000E7D001245FEA531E5CD14FF001084FF06F
:10173000A04E08FA03F9CEF80C950AE0C2F8083575
:10174000BCF1000FD9D15C1CD3D00024A0464FF0CF
:10175000060CD0F8009009F4004EBEF1000F1CBF3B
:101760004FF00008012403F01F0E5B0942D14FEA3D
:101770008E0E0EF1A04EC9F34129DEF800373B4032
:1017800043EA890343EA0C2343EA080343EA440398
:10179000CEF80037ADE7C2F80C35D1E7C2F86035B6
:1017A000B3F1FF3F0468A4D0C4F30044002CB8D0C8
:1017B0005C091BD101244FF0A04E04FA03F8CEF8C7
:1017C0000885A046C5E7C2F86435E9E7C2F8683580
:1017D000E6E7C2F86C35E3E76FF0150061E76FF0FC
:1017E00085005EE70023C3F80C35FFDE0023C3F855
:1017F0000835FAE70EF5E07E002353F82E30F4E7C3
:10180000F6530000F0F8FCFF2DE9F041044647686C
:101810000D4603F046FA4FF0200888B9264B1B7896
:1018200073B16426606803F06DF8F0B9012003F02D
:10183000C4F8013EF6D10021212003F0A2FAF0E71E
:10184000EFF31186314688F31288BFF36F8F60681B
:1018500003F058F8A8B986F31188BFF36F8FEFE74C
:1018600086F31188BFF36F8FE5E7EFF311863146FA
:1018700088F31288BFF36F8F606803F043F8002885
:10188000EED0BB691D706368BA691B680020C3F89D
:1018900044250122C3F84825C3F82001D3F820418C
:1018A000C3F85801D3F858019A6081F31188BFF347
:1018B0006F8FBDE8F08100BF3C040020F8B5002226
:1018C000054601210220FFF771F80220FFF752F8C8
:1018D0006C680121E06803F046F86B681A682369B8
:1018E000C2F82435637D217D0B43C2F86C356E68E8
:1018F000D6E9004313F0010342D02F6907F1080035
:1019000003F067F82D4B984254D1387A04F10C0259
:1019100004F5907103F053F8387A012707FA00F0C4
:1019200000F004FC0823C4F80035B369C4F844355A
:101930000023C4F84835A760D4F85831002BFBD0F9
:101940000026C4F800656B683146D86803F00BF8D0
:101950006D6831462C68E86803F005F80823C4F880
:1019600000352A7A52B9EB69C4F834350123C4F83A
:101970003835C4F81021D4F8102123600020F8BDB8
:101980000822C4F80025B269C4F84425C4F84835D3
:101990000123A360D4F82031002BFBD00023C4F82E
:1019A0002031D4F820310123E3604FF48073C4F870
:1019B0000433C1E76FF00400E1E700BF0000AD0BA6
:1019C00070B5012383400E4ABFF35B8FDC4352E8BE
:1019D000001F01EA040542E80056002EF7D1BFF3CC
:1019E0005B8F4FF4803282400648C0F80823BFF373
:1019F0005F8FBFF36F8F0B4214BF0120002070BDBB
:101A00004C0300200010014070B40E49D1E90034AD
:101A1000D01AC31844F1000422F07F46C1E9003413
:101A2000A6F50013B3F5400F09D2074B1B681A0A3D
:101A30001B069C19054B42F10005C3E9004570BC2B
:101A400002F03EB968000020500300207000002022
:101A500011B3BFF35B8F0123104A834052E800CFDC
:101A60004CEA030C42E800C10029F7D1BFF35B8FB9
:101A70000B4A4FF480338340C2F80433094BBFF361
:101A80005B8F1B68BFF35B8FC340DB0742BF064B16
:101A90004FF40032C3F80021704700BF4C03002010
:101AA000001001404803002000E100E00D4B1868E1
:101AB000010A0006BFF35F8F0B4BD3F804351818EB
:101AC00041F10001B3F5801F0AD2084BD3E900238E
:101AD000904271EB030303D210F1807041F10001D9
:101AE000704700BF5003002000100140700000202C
:101AF0002DE9F04F85B016461F469DF840A00446DC
:101B0000FFF75EFF0190FFF7D1FFB04271EB0703D3
:101B100054D23E4B301A67EB0101984271F100013B
:101B20004FD23B4B03EB0413D3E902239F4208BF80
:101B300096425ED037494FF4803804F1500508FAD8
:101B400004F8AD00C1F848832046ADB202F01AFF98
:101B500026F07F4B05F1804504F5A87305F588351F
:101B6000DC464FF003090293029A2CF07F4341F8C0
:101B70002230C1F84483D1F80435274A6FF00200BF
:101B8000C01A604420F07F40904232D9286868B182
:101B9000D1F804350393A3EB0B0020F07F40B0F5A0
:101BA000000F26D9204602F0EDFE039BBAF1000F8C
:101BB00007D109EB030C09F10109D5E7BAF1000FD0
:101BC00009D06FF0150520460199FFF741FF28461F
:101BD00005B0BDE8F08F0123104ABFF35B8FA3402F
:101BE00052E8000F184342E800010029F8D1BFF382
:101BF0005B8F07490E98230101EB0412C8500F9B1D
:101C00005360C2E902670025DDE700BF01008000E4
:101C10005800002000100140FDFF7F004803002015
:101C20007FB51C4C1C4BC4F80833C4F848331B4B1D
:101C300000254FF0FF304FF0FF31C4F80855C3E9DD
:101C400002014FF48033C4F80433154B02264FF4DD
:101C500000320121C4F804631120C3F880212A4610
:101C6000FEF7A4FE1120FEF785FE0E4A0123A360B5
:101C7000236013600C4B0D4A0093CDE901550023FE
:101C80002846FFF735FF3046FFF7F2F9284604B043
:101C900070BD00BF0010014003000F00580000207D
:101CA00000E100E04C030020091A0000FFFF7F0064
:101CB0002DE9F7432F4CD4F8043399070BD5D4F80A
:101CC000043143B12C4A0023C4F80431D4F8043160
:101CD000136801331360D4F80433DA0329D5BFF352
:101CE0005B8F264B53E8002F22F0010143E80010E0
:101CF0000028F7D1BFF35B8FD30702D4D4F840316B
:101D0000BBB10025C4F84051D4F84031FFF7CEFEF6
:101D1000EFF31182202383F31288BFF36F8F184BE8
:101D2000D3E90267B042B94106D282F31188BFF30A
:101D30006F8F03B0BDE8F0834FF0FF384FF0FF39ED
:101D4000C3E90289D3E900101D604FF48033C4F861
:101D50004833C4F84051D4F8403182F31188BFF3BE
:101D60006F8F0029E5D0009032463B4628468847D1
:101D7000DFE700BF001001405003002048030020AF
:101D80005800002030B5431C124C85B005D0844269
:101D9000A8BF0446012CB8BF0124FFF787FE0E4BF5
:101DA0000C4DD3E90013401AB0F5000F10D22218E1
:101DB000AA4228BF2A4652184FF000000749009156
:101DC000CDE9010043F10003FFF792FE05B030BDFD
:101DD0002A46F0E7FFFF7F0068000020091A000094
:101DE00008B5FFF763FE024B1B68C01A08BD00BFB1
:101DF000680000204FF0704393F8E02F062A09D1C5
:101E0000D3F8E83FC3F30313033B042B02D8024A81
:101E1000D05C7047002070471B540000024AD2F883
:101E20000034002BFBD0704700E0014010B502F0F9
:101E3000B5FD40B14FF080538E4AD3F82433C3F33D
:101E40000423C2F84035FFF7D5FF10B18A4B8B4A07
:101E50005A6702F0A3FD48B14FF080534FF0804223
:101E6000D3F84432C3F34233C2F83C35FFF7C2FF24
:101E700030B1834AD2F8FC3023F08073C2F8FC30D2
:101E800002F08CFD40B14FF080430022C3F80C21DA
:101E9000C3F81021C3F83825FFF7ACFF20B14FF08D
:101EA00080430322C3F8A025FFF7A4FF60B1754B60
:101EB0000522C3F810260122C3F888260022C3F8A1
:101EC00018263F22C3F814264FF08053D3F8302150
:101ED000511C09BF4FF07043D3F8343193F8E02F11
:101EE000D3F8E83F08BFC3F30313062A4DD1033BE1
:101EF000042B03D8644AD35C002B46D04FF08052A9
:101F0000624BD2F80414C3F82015D2F80814C3F8B1
:101F10002415D2F80C14C3F82815D2F81014C3F8FD
:101F20002C15D2F81414C3F83015D2F81814C3F8CD
:101F30003415D2F81C14C3F84015D2F82014C3F895
:101F40004415D2F82414C3F84815D2F82814C3F85D
:101F50004C15D2F82C14C3F85015D2F83014C3F82D
:101F60005415D2F83414C3F86015D2F83814C3F8F5
:101F70006415D2F83C14C3F86815D2F84014C3F8BD
:101F80006C15D2F84424C3F8702502F007FD48B15F
:101F90004FF080534FF08042D3F8583203F04F0394
:101FA000C2F8E43E02F0FAFC48B14FF08043D3F8A7
:101FB0000024D20744BF6FF00102C3F800244FF0A1
:101FC0008053D3F83021062A26D1D3F83431033B8D
:101FD000042B02D82E4AD35C63B12E4AD2F83C3788
:101FE00043F48063C2F83C374FF08053D3F830316C
:101FF000062B11D14FF08053D3F83431033B042B1F
:1020000002D8254AD35C3BB14FF01023D3F8082205
:102010004FF08043C3F858254FF01023D3F8002227
:10202000002A03DBD3F80432002B22DA1B490123F8
:102030004FF01020C1F804351524FFF7EFFEC0F86B
:102040000042FFF7EBFEC0F80442FFF7E7FE002373
:10205000C1F80435FFF7E2FEBFF34F8F0849104B7C
:10206000CA6802F4E0621343CB60BFF34F8F00BF36
:10207000FDE710BD0030014000C007400DF0ADBAD3
:1020800000ED00E0005000401654000000C0004089
:1020900011540000001000400C54000000E001400A
:1020A0000400FA0530B50468CCB1BFF35B8FB4FA15
:1020B00084F3C3F11F03DBB201229A4024EA020237
:1020C00050E8005FA54204D140E8002CBCF1000FAD
:1020D000F6D1BFF35B8FE6D102480B7030BD0248EA
:1020E000FCE700BF0000AD0B0200AD0B10B50368AC
:1020F000CB40DB0714D401238B400268BFF35B8F16
:1021000043EA020150E8004F944204D140E8001C29
:10211000BCF1000FF6D1BFF35B8FEED1014810BDCB
:102120000148FCE70000AD0B0400AD0B014BC3F808
:102130000405704700F00140F7B50546F8B10128E5
:102140001BD104224FF4807301464FF080400344BA
:102150000244C0F808130026012111601E608D4260
:102160001B688DF8071008BF0DF1070642F21074C6
:102170004FF0804745B1012D29D003B0F0BD0C22AE
:102180004FF482730221E0E7D7F8183403F4803368
:1021900066B9002BF1D0012002F00FFC013CF3D115
:1021A000EBE702F00AFC013CE4D1E6E7D7F818249B
:1021B00002F003023260002BDFD09DF807000128F7
:1021C000EFD0012DD9D10C4B00225A71D5E7D7F8A9
:1021D0000C3403F480333EB9002BF4D0012002F01C
:1021E000ECFB013CF3D1C8E7D7F80C2402F0010264
:1021F0003270002BE1D1E6E754030020044B1A793A
:1022000022B9012218609A8002487047024870473C
:10221000540300200000AD0B0C00AD0B08B5074BBC
:102220001B682BB10020FEF7B3FB08B9FEF7A2FB39
:102230004FF080430022C3F8182508BD5403002046
:1022400038B5B0B1012855D14FF080420023C2F813
:102250000031D2F80021304A03F180430121196096
:102260002E4B1B68002B50D04FF08043C3F8040363
:1022700040E04FF08043D3F81814D3F81824C80373
:102280002AD502F00303012B04D013B10020FFF77D
:1022900053FF00234FF08042C2F818350023C2F8E4
:1022A0000431D2F804311E4AD2F8FC0040F08073A9
:1022B000C2F8FC301B4B1C6844F0010119605D68DA
:1022C0005968491BB1F50A5FFAD31C60C2F8FC00DB
:1022D0000823154A0220BFE7D3F81424D107D8D524
:1022E000D3F81C249207D1D40C4A12681AB10222E6
:1022F000C3F8042338BDD3F80421002AFBD0002200
:10230000C3F80421D3F80431F4E71368002BFCD0A0
:10231000002313601368EDE7000100405403002020
:1023200000ED00E0001000E004010040F8B54FF0BF
:1023300080431C4ED3F804430125002704B9F8BD9F
:10234000B4FA84F0C0F11F00830003F580739BB2E0
:1023500003F1804305FA00F21968D2B224EA0204BC
:102360000029EBD01F601B684FF08043012AC3F89F
:10237000082305D0022A08D03368C0B29847DDE7A9
:102380007379002BDAD17271F6E7D3F81814D3F809
:1023900018148907F0D1C3F81855C3F804239D60B9
:1023A000CCE700BF5403002070B5C3B20C4C083317
:1023B000054634F81330DA050E4607D5C3F3432338
:1023C00004EBC30254F8333052689847A3682BB12A
:1023D000E26831462846BDE87040184770BD00BF2E
:1023E0005C03002010B4C0B2114A083032F810303B
:1023F000D9051BD5C3F3432123F4F85322F8103039
:1024000002F10E04002034F8023F13F4807F03D061
:10241000C3F34323994209D001302028F3D100238C
:1024200042F83130034810BCFFF760BE10BC704763
:102430005C030020B403002001F18051F0B501F5E8
:10244000C2510446114A00208900012506468A42ED
:102450000BD10F4BD3F87C2132B10022C3F87C2181
:10246000D3F87C3140F00040F0BD02F14043A3F5C9
:10247000C2439B0805FA03F31C4204D0176817B146
:102480001660176818430432E1E700BF006100409E
:1024900000600040CBB20246083308460C4931F8D0
:1024A0001330990611D599070FD410685B0B0121E1
:1024B0009940C0F80813126802EB8303D3F8102583
:1024C00022F00302C3F810257047002102F0D8BAA9
:1024D0005C030020F7B5CDB2174E0835074636F835
:1024E0001530DB070C4624D5FFF7D4FF36F815303E
:1024F0009A0606D55B0B3A6803F5A273002142F8F1
:1025000023102046FFF76EFF002301A826F81530A0
:10251000019402F062FA019B00EB8300074BD0F8B4
:102520000027134043F00203C0F80037044803B00B
:10253000F0BD0448FBE700BF5C030020F0F8FCFF9F
:102540000000AD0B0400AD0B2DE9FF4113680746F9
:102550000C461646FBB1CDB2DFF84481083538F899
:10256000152002F02202222A22D00022CDE90022E8
:102570008DF80E208DF80F200DF10E010DF10F02D8
:10258000204602F034FA38F8153023F0020343F005
:10259000010328F8153073684BB393F800C05868EE
:1025A0003F4AE3B2083332F813108D0702D5B0B1B9
:1025B0003C481FE021F02001C904C90C22F8131087
:1025C00068B1BCF1030FF3D87068406805783868CB
:1025D000BCF1000F11D105F5A27540F825C032F805
:1025E000131021F01C0141EA8C0122F81310B3688A
:1025F00063BB2D4804B0BDE8F08100EB850041EAE3
:102600004531D0F810E52EF0030EC0F810E53F6814
:1026100007EB850741F02001D7F8100522F81310C9
:1026200020F4473020F44070C7F810052002D7F896
:1026300010E500F4F85040EA0C4040EA0E00C7F8FC
:10264000100502EB4500A0F85C40C8E7D3E900673D
:102650002046FFF7C7FE002ECBD0114DD5E9002351
:10266000964203D19F4201D1002209E00F480DF1AB
:102670000F01FFF717FD0C4B9842BBD19DF80F20BF
:1026800045F83260E4B205EBC20308345F6035F808
:10269000143043EA422343F4807325F81430A8E74A
:1026A0005C0300200400AD0B0000AD0BB403002060
:1026B0002DE9FF4107460C461E4612B3CDB2DFF8A6
:1026C000D080083538F81530980701D4990621D400
:1026D00013F01C0F02D05378012B1BD001238DF86F
:1026E0000F300023CDE900230DF10F01931C20468C
:1026F000013202F07CF938F8153043F0030328F872
:102700001530002E42D0E1B2214D083135F81120AC
:10271000930703D41F4804B0BDE8F08196F800E0A9
:10272000D7F800C022F020020EF5A270D2040023D8
:10273000D20C4CF8203025F8112096F801C0BCF1DD
:10274000000F23D03868B67800EB8E004FEA0C4CAF
:10275000D0F8103523F4981323F4F853C0F810354B
:10276000230203F4F8530CF4403C3605D0F81075FE
:1027700043EA0C0306F4801642EA4E32334342F039
:1027800020023B4325F81120C0F810350248C2E76B
:102790005C0300200400AD0B0000AD0B014BC3E94E
:1027A000021270475C030020C9B20831044B33F8B1
:1027B0001130990643BF5B0B024813700248704703
:1027C0005C0300200000AD0B0400AD0B70B50E4C97
:1027D00094F86C500646A5B94022294604F1100031
:1027E00002F047FB3068C0F87C51D0F87C3140F3F0
:1027F0000730FEF7BFF80123044884F86C30A36566
:1028000070BD0348FCE700BF5C0300200000AD0B77
:102810000C00AD0B034B93F86C00003818BF01207F
:10282000704700BF5C0300200079024B03EB80007F
:10283000FFF75CBC3C0000200079024B03EB8000FA
:10284000FFF730BC3C00002073B5CBB20C46083318
:10285000214931F8133001689D0619D513F002069D
:1028600016D15B0B9C0004F580754E5149590168E7
:102870002144D1F8104544F00104C1F810452AB1B3
:102880000168012202FA03F3C1F8043302B070BDFB
:10289000D1F80423002AA8BF4FF00042C3F38203FB
:1028A000A8BFC1F80423042B12D0052B12D001A815
:1028B000019402F092F8019AD0F81035D34003F059
:1028C0000103991C204602B0BDE8704002F0D8B860
:1028D0000321F7E70221F5E75C0300202DE9F34728
:1028E000514BD3F80403C0B2082140F00040FFF779
:1028F000A3FD051E16DA002301216846009302F0AD
:10290000CEF8DFF828810127009999B94FF00040EF
:10291000FFF792FD0121684602F0C1F80028F3D1CB
:1029200025F00045404E414F0124002D66D102B0F4
:10293000BDE8F08791FAA1F4B4FA84F4E00804F158
:10294000080304F0070238F813901DF800300194D2
:1029500007FA02F223EA02030DF8003001A802F0A0
:102960003CF8019B03F5E0734FEA990150F82360AE
:10297000C9F3820A4B07D146C6F3014623D5204648
:102980005146FFF711FD01A8019402F026F8019BC2
:1029900003F5E073F6B250F82330C3F301439E42CF
:1029A00007D10021204602F06BF83146204602F0A4
:1029B00067F801A8019402F010F8019B07FA03F3ED
:1029C000C0F82035A0E7022E0CD10321204602F0EA
:1029D00057F80AF00503012BEBD149462046FFF7D3
:1029E000E3FCE6E70221204602F04AF8BAF1030FC1
:1029F000F3D0032EDDD1BAF1020FEDE795FAA5F37E
:102A0000B3FA83F304FA03F225EA020503F5A2728E
:102A100007EB430356F82210B3F85C00C1F3014101
:102A2000FFF7C2FC81E700BF006000405C030020AC
:102A300001460148FFF736BB40000020CB7B10B4B5
:102A400033B9D1E900420368C3F80845C3F80C253F
:102A500003688A68C3F8242503793C225343054A56
:102A6000D3582BB1006810BC40F30730FDF782BF8C
:102A700010BC7047CC03002013B53B4B01930023DF
:102A8000C0F80431D0F80421C0F82431D0F8242152
:102A9000C0F81C31D0F81C21C0F80831D0F808214A
:102AA000C0F800324B6381F82F300123036291F8A4
:102AB0002D209A4218BF83604B6B8A6A934204466A
:102AC0000ED24A6AD35CC0F81C350B6803B340F2DF
:102AD00086238B608B682548C4F8043302B010BD90
:102AE00091F82C3013B10123C361EEE70B6A13F0A8
:102AF000400F4FF0010316BFC361436181F82D30D1
:102B0000E3E7204601F0DDFF28B1019B013B019383
:102B1000019B002BF5DC91F82F305BB91348019B2A
:102B2000002BDBDC0023C4F8003505231048C4F873
:102B30000035D3E7D4F8C434C4F8C4348BB10D4A9B
:102B40000B4813F0010F18BF104613F0020F02F1EB
:102B5000010218BF104613F0040F074B18BF1846A8
:102B6000DDE70348DBE700BFA08601000000AD0BF6
:102B70000100AD0B0000AE0B0200AE0B13B5334BE2
:102B800001930023C0F80431D0F80421C0F82431A7
:102B9000D0F82421C0F81C31D0F81C21C0F808312D
:102BA000D0F808214B6381F82F308B6A012B044643
:102BB00017D10B6A5B0614D40223C4F80032012338
:102BC000236291F82D20022A18BF23600B688BB175
:102BD00040F286238B608B681D48C4F8043302B032
:102BE00010BD0123E9E7204601F06BFF28B1019BEE
:102BF000013B0193019B002BF5DC91F82F305BB971
:102C00001348019B002BEADC0023C4F800350523A0
:102C10001048C4F80035E2E7D4F8C434C4F8C4342A
:102C20008BB10D4A0B4813F0010F18BF104613F07B
:102C3000020F02F1010218BF104613F0040F074BF8
:102C400018BF1846DDE70348DBE700BFA086010098
:102C50000000AD0B0100AD0B0000AE0B0200AE0B8F
:102C6000F8B506792A4D4FF03C0C0CFB06FC05EB41
:102C70000C0494F82E70002F3DD1A76045F80C206D
:102C8000636084F82D7084F8317084F8307051B32B
:102C90004B7B84F838308F7B84F839700FBB0A681F
:102CA00002F01F03520928D19B0003F1A043DFF873
:102CB00064C0D3F8004740F20C6704EA0C043C43BC
:102CC000C3F800474C6804F01F0364091AD19B0045
:102CD00003F1A043D3F8002702EA0C023A43C3F8F9
:102CE0000027FFF7ABFE3C2303FB06550A480123F0
:102CF00085F82E30F8BD0948FCE703F5E07357F876
:102D00002330FFDE03F5E07352F82330F9E700BF0C
:102D1000CC030020F0F8FCFF0000AD0B0C00AD0B65
:102D2000036802790521C3F80015044B3C2101FB1F
:102D30000233022283F82E20704700BFCC0300200C
:102D400003680B4A0179C3F80823D3F8002222F064
:102D50000302C3F800220022C3F80025054B3C20E3
:102D600000FB0133012183F82E1083F830207047D7
:102D700086420400CC0300202DE9F047314F04794E
:102D8000D0F800903C2303FB04730D4693F82D30DC
:102D9000012B944604D10B78012B06D12A4811E06F
:102DA000022B02D10B78012BF8D13C26274BC9F816
:102DB000083306FB047696F830302BB1B36824480C
:102DC000C9F80433BDE8F0878CF00403C3F3800333
:102DD00086F83030C6F820C0A846B8E80F0006F1E3
:102DE0000C0EAEE80F00D8F80030CEF800306B685B
:102DF000B362EB6873626B78C9F888352B78C4EBE3
:102E0000041A012B07EB8A0A17D09BB9CCF3401C9C
:102E10003C2303FB04735146484683F82CC0FFF75C
:102E20002BFE3C235C433A193B59002BCAD182F854
:102E30003030C7E74FF0010CEAE751464846FFF74C
:102E40009DFEEEE7CC0300200500AD0B864204009A
:102E50000B00AD0BF0B5324C324887B0214601F083
:102E600030FE002859D194F82F70FFB9227B931EB1
:102E7000012B1BD8606AA369984217D1E36963628A
:102E80006369A362236A274884F82D70C3F3401353
:102E9000032A84F82C3004D107B0BDE8F040FFF7D6
:102EA000EBBD07B0BDE8F040FFF768BE1E4E0FCE89
:102EB00001AD0FC533682B6047B31A4AD2F8C4344A
:102EC000C2F8C43413F0020106D001238DF800309B
:102ED000002384F8303007E013F0040209D0022305
:102EE0008DF8003084F83010D4E9003168469847F6
:102EF00013E013F0010305D003238DF8003084F8AC
:102F00003020F1E704228DF80020E2E7236A8DF8F3
:102F100000705B0784F83070E6D507B0F0BD00BFE5
:102F2000CC03002000300040D8030020F7B506464F
:102F300001F069FE084601F066FE01A8019601F065
:102F400058FE019B2E4D00EB83000C46D0F8003755
:102F5000019440F20D612B400B43C0F8003701A8EB
:102F600001F047FE019B00EB83000127D0F80037FA
:102F70002B400B43C0F80037042001F01EFD09254B
:102F800001A8019401F035FE019AD0F81035D34024
:102F9000DB0715D401A8019601F02BFE019B07FA6F
:102FA00003F3C0F80C35042001F007FD304601F0B2
:102FB0002AFE013D042001F000FD15F0FF05DFD1E0
:102FC00001A8019401F015FE019A01239340C0F875
:102FD0000C35042001F0F1FC204601F014FE042021
:102FE00001F0EBFC01A8019401F003FE019AD0F876
:102FF00010350448D34003F00103C01A03B0F0BDFC
:10300000F0F8FCFF0100AD0B38B5EFF3118520237C
:1030100083F31288BFF36F8F064B9C6801F018FE94
:1030200085F31188BFF36F8F2046BDE83840FDF768
:1030300047BC00BF0804002038B50A4B53F82040B5
:10304000013053F82050A54200D838BD606830B137
:10305000037FDB0701D401F0FEFD0834F3E72368AA
:103060009847FAE70853000070B52A4B2A4C2B4DBD
:10307000012286B003201A70FFF7DEFFFDF710FA79
:103080000420FFF7D9FF2646AE4204F1300410D3E6
:1030900000F0FCFA204C224EAC4226D300F00AFB92
:1030A000FDF738F81F4A137B23F00103137306B0B2
:1030B00070BD54F80C3C059354F8103C049354F83C
:1030C000143C039354F8183C029354F81C3C0193AD
:1030D00054F8203C009354E90A2354E90C0100F011
:1030E0002DF954F8303C5E65CDE7D4E90A23B3F1FD
:1030F000FF3F08BFB2F1FF3F05D052EA030120684D
:1031000003D100F093FB3034C6E73146183000F0AD
:1031100045FDF8E73C0400206C5100006C510000B4
:103120007B4D00002801002008B50348034A002118
:10313000121A01F0A7FD08BD58000020400400202D
:1031400070B5174E174D184986B0B02303FB0066C3
:10315000164B059301220F23CDE903320023CDE95D
:103160000133142303FB005504464FF4C07000FBE9
:1031700004110F4B00954FF4A072304600F0DEF8BA
:10318000737B0C4AEE6023F0040373734FF4046303
:1031900004FB033313442C746B6006B070BD00BF96
:1031A0007800002008040020800C0020205400003B
:1031B0008D4C000040040020BFB50020FFF73CFF0D
:1031C000294B83F30888294C294F636943F4007322
:1031D00063610025E02384F82230E5772576657663
:1031E000A57684F82050636A43F4E023636284F890
:1031F0002350FDF7DBFAFDF767FC4FF0FF33A362C6
:10320000E362FDF729FDFDF783FC1A481A4C00F034
:103210000BF901F009FD0120FFF70EFF0220FFF777
:103220000BFF00F07BFA154B15495C61154B0593BC
:103230000123CDE903534FF480623B46CDE90155AC
:103240000095204600F07AF8627B064622F00402E0
:103250002046627301F065FD2846FFF771FF3A468C
:1032600031462046FDF710FC800C002000ED00E008
:1032700069300000D8010020280100200804002047
:10328000000E00202554000070B5EFF311862023B6
:1032900083F31288BFF36F8F0468A0421BD0D4B1B0
:1032A000D4E9003213605A60637B002523F00203E7
:1032B0006373C4E90055A56004F1180001F09FFD97
:1032C0002046C4F8AC5001F02CFD31460748BDE85B
:1032D000704000F0B5B9D0E902329A4218BF01330C
:1032E000836086F31188BFF36F8F70BD3D040020AB
:1032F00013B5EFF31181202484F31288BFF36F8F8D
:10330000846844B1013C846081F31188BFF36F8FFE
:10331000002002B010BD52EA030406D181F31188E7
:10332000BFF36F8F6FF00F00F3E7CDE90023024684
:10333000014800F063F9ECE73D0400202DE9F04F6F
:10334000073285B022F0070204461E467F3200F1A4
:103350005803C0E9163322F03F02129B237300206A
:103360000D46119BDDF838A0139FA06004213F2A71
:10337000C4E906006173A373E07305F14009A2F18B
:10338000400B05D880F31188BFF36F8F084602DF2A
:1033900005EB020841462046FDF794F80730109BE4
:1033A00020F00700C4E9259BC4F89C0002930F9B02
:1033B000A8EB000BCDE900A35A4633462946204628
:1033C000FDF72EFB0F9BA3664FF00008109BC4F87F
:1033D0005480C4E9186AE366EFF31182202181F377
:1033E0001288BFF36F8F0F4D296A21672C6282F319
:1033F0001188BFF36F8F8FB11F22394604F174001B
:1034000001F03FFD84F89380AB680BB1D3F8A03096
:10341000C4F8A030584605B0BDE8F08F84F8747049
:10342000F2E700BF0804002040F20113838100236B
:10343000C0E92533C0F8A030014B9860704700BF49
:10344000080400200A4A93686FF00A01C3F8AC1020
:103450000849C3F8A8004B6843F080534B60002331
:1034600083F31188BFF36F8F9368D3F8AC00704774
:103470000804002000ED00E070B590F90D20437BBA
:10348000002A36DBD90634D11B4C63F07F03224679
:10349000437352F8183FE169934207D1C0E9002114
:1034A0000860E06111E09942F8D01B68002BF5D06C
:1034B00090F90E5093F90E60B542F4D0AE42F2DDB1
:1034C0005968C0E9003108605860A569954200D08C
:1034D00005B9E568A3685A7BD20604D1DA897F2A48
:1034E00001D9AA6932B1AB4202D0284600F096FA5F
:1034F000656170BD6361FCE70804002038B590F990
:103500000D20437B002A014604DA03F07F03437356
:1035100001F0CDFB0D4D2A46AB6852F8184F94428E
:1035200000D004B9EC688B4207D05A7BD20604D194
:10353000DA897F2A01D9A2692AB1A34202D02046A2
:1035400000F06CFA23466B6138BD00BF0804002010
:10355000B3F1FF3F08BFB2F1FF3F03D0024918307B
:1035600000F01CBB704700BF7B4D000070B590F9A8
:103570000D20437B002A014604DA03F07F034373E6
:1035800001F095FB4B7B1C4C63F07F0322464B7391
:1035900052F8183FE069934207D1C1E90020016069
:1035A000E16111E09842F8D01B68002BF5D091F949
:1035B0000E5093F90E60B542F4D0AE42F2DD586879
:1035C000C1E9003001605960A569A368954200D047
:1035D00005B9E5688B4207D05A7BD20604D1DA8957
:1035E0007F2A01D9AA692AB1AB4202D0284600F04D
:1035F00015FA2B46636170BD08040020F8B50E4B28
:103600000C4611460D4A98681060DDE90667EFF335
:103610001182202282F31288BFF36F8F9D682846A3
:1036200001F057FB284632463B46FFF791FF204604
:10363000BDE8F840FFF706BF080400202C04002076
:1036400049B9EFF3058030B9054B5A699B689A4236
:1036500001D0FFF7F7BE81F31188BFF36F8F70477A
:1036600008040020034648B9EFF3058232B9064A40
:1036700051699268914201D0FFF7E4BE83F311884B
:10368000BFF36F8F704700BF08040020EFF3118174
:10369000202383F31288BFF36F8F054B9A68D37B87
:1036A000013BD37381F31188BFF36F8F704700BF65
:1036B0000804002070B5EFF31186202383F31288ED
:1036C000BFF36F8F144DAB68DA7B0132DA732A4691
:1036D00052F8184F944200D004B9EC685A7BD206D5
:1036E00004D1DA897F2A01D9A2692AB1A34202D082
:1036F000204600F093F923466B6186F31188BFF3EF
:103700006F8FEFF31180202383F31288BFF36F8F45
:10371000BDE87040FFF7A6BF08040020024B03F18C
:103720001802C3E9062270470804002070B5EFF3C1
:103730001186202383F31288BFF36F8F1B4CA1687F
:10374000E0690B68814214BF1A46002249680B6089
:103750005960A368E1692AB9154AC3E900210B60E1
:10376000E3610CE093F90E0092F90E50A84218D0D4
:10377000854216DD5168C3E900210B605360A569DD
:103780000B4B9D4200D005B9E568A3689D4202D06D
:10379000284600F043F965613046BDE87040FFF708
:1037A00051BE8A42D8D01268D5E700BF0804002075
:1037B00020040020F8B550EA010306460C4603D168
:1037C000FFF7B4FF0020F8BDEFF31187202383F348
:1037D0001288BFF36F8F124D124BA8681860FFF765
:1037E0008DFEA868104923463246183000F0D6F9FD
:1037F000AA68537B43F00403537304463846FFF72B
:1038000021FEAB68D3E90A23B3F1004F08BF002AB9
:10381000D8D101F01CFB201A20EAE070D3E700BFEA
:10382000080400202C0400207B4D000038B504461D
:10383000EFF31185202383F31288BFF36F8F437B4F
:103840005B070FD5183001F0DAFA637B23F004032D
:1038500020466373FFF710FE29460548BDE838404F
:10386000FFF7EEBE85F31188BFF36F8F38BD00BF41
:103870003D040020014B9868704700BF08040020F9
:103880002DE9F8430446077BEFF31185202383F3EA
:103890001288BFF36F8F437B190705D585F3118815
:1038A000BFF36F8FBDE8F883D90943F008025DD1FB
:1038B0004273A36813B1204601F001FA04F1180025
:1038C00001F09DFAA66D04F15808B04511D04FF0F3
:1038D000000976B1304601F0F2F906F1180001F066
:1038E0008EFAC6F8AC903046FFF7C6FDA66DB0451F
:1038F000EFD1DFF8C080D8F808309C423ED1EFF31A
:103900000589B9F1000918BF4FF00109D8F818600E
:10391000294A964200D00EB9D8F80C60B34202D0C2
:10392000304600F07BF82046C8F8146000F0CEF86E
:10393000B9F1000F02D02148FFF776FDD8F8083022
:103940009C4231D1EFF3058373BB227BD20718D49D
:103950002846FFF777FDFB07A4D5002383F31188E2
:10396000BFF36F8F0423184602DF9BE703F07F034A
:1039700043F00803437301F09AF99AE74FF0000906
:10398000C4E785F31188BFF36F8F83F31188BFF30A
:103990006F8F0423184602DFEFF31180202383F397
:1039A0001288BFF36F8FD4E785F31188BFF36F8F51
:1039B000D1E700BF0804002020040020D801002027
:1039C000044BC01A044BC0105843044B01221A5434
:1039D000704700BF88020020ABAAAAAA3D040020BD
:1039E000C3897F2B12D80A4B1B6863B1094B90F92E
:1039F0000E201B689A4209DB437BDB0606D1064B8F
:103A0000C31A18BF012303F0010070470023FAE72F
:103A100044000020300400207800002070B50E4BD8
:103A20000E4C1E7C06EB460304EBC3040546204601
:103A300001F0E5F90A4B002228469A55FFF7D0FF1E
:103A400048B1084B08491A68013A2046D317BDE827
:103A5000704000F0A3B870BD080400208802002068
:103A60003D04002044000020C139000038B5EFF3C8
:103A70001185202383F31288BFF36F8F104B114AF7
:103A80009C681068A04206D1FFF7C8FF85F3118833
:103A9000BFF36F8F38BD00211B7C11600A4AD35CD5
:103AA000002BF3D02046FFF79BFF0028EED0637B6E
:103AB000DB0602D12046FFF759FD2046E4E700BFB0
:103AC000080400202C0400203D040020EFF31181A5
:103AD000202383F31288BFF36F8F0A4A136A83424D
:103AE00007D11B6F136281F31188BFF36F8F70478B
:103AF0001346002BF7D01A6F8242F9D1026F1A6772
:103B0000F1E700BF080400200748084A084908B543
:103B1000121A01F0B9F80748074A0849BDE80840F9
:103B2000121A01F0B1B800BF0000002058000020B8
:103B30003C54000000000020000000203C54000025
:103B4000024B1868984208BF0020704748000020C8
:103B5000034B1B680BB9FEF743B90020704700BF49
:103B60003404002030B570B10B4B5B6898420AD02A
:103B7000036843B1D3E90421D0E90445121941EBAC
:103B80000501C3E90421D0E9003213605A60002323
:103B9000C0E9003330BD00BF48000020B3F1FF3F53
:103BA00008BFB2F1FF3F2DE9F84F0446994615468C
:103BB0001F467BD08160EFF31188202383F31288A6
:103BC000BFF36F8F013279F1FF33DFF8E8A020DB1C
:103BD000FFF7BEFFDAE90027013549F100092D188A
:103BE00049EBE073C4E90453AD18064643EB0707FD
:103BF0004FF00109FFF7A4FFDFF8BCE0DEF804A0F6
:103C00000346EBB9C4E900EACAF80040CEF8044024
:103C100028E0DAE900126FF001035B1A4FF0FF3180
:103C200061EB02025B1B62EB0902012B72F10001E6
:103C3000BCBF01230022C0E904324FF00009D9E7DC
:103C4000D3E9041CD4E904208A4270EB0C0B24DA7B
:103C5000891A5A686CEB0000C3E90410C4E9003209
:103C600014605C60FFF76CFF84420ED1134B1B683D
:103C70005BB9B9F1000F02D1FFF76AFF0646304683
:103C800001F0A6F80021FEF77DF888F31188BFF354
:103C90006F8F28463946BDE8F88F521A60EB0C004A
:103CA0009A45C4E90420ADD01B68AAE700252F4639
:103CB000EFE700BFA00200204800002034040020ED
:103CC0002DE9F047EFF31185202383F31288BFF32A
:103CD0006F8FDFF8A490DFF8A480C9F80000FFF729
:103CE0002FFF00260027D9F80030D8E900ECD917BB
:103CF00050B1D0E90442A34271EB020A1CDAE41A83
:103D000062EB0102C0E9044213EB0E034FF0000422
:103D10004CEB01012046C8E90031C9F8004001F030
:103D200057F82146FEF72EF885F31188BFF36F8F01
:103D3000BDE8F047FFF79ABE14EB0E024CEBE473BC
:103D4000C0E90467C8E90023FFF70CFF85F3118879
:103D5000BFF36F8F83689847EFF31185202383F3B8
:103D60001288BFF36F8FD9F800301B1BC9F80030E1
:103D7000FFF7E6FEB7E700BF34040020A0020020F2
:103D800010B5EFF31184202383F31288BFF36F8FF4
:103D9000FFF7DEFE054A0346D2E90001181841EBA1
:103DA000E37184F31188BFF36F8F10BDA002002070
:103DB0002DE9F04F8DB043680293837815469A073A
:103DC000804640F10D8100240E78002E00F00A811B
:103DD000252E0BD04B1C03930134029B41463046E9
:103DE00098470028C0F2F6800399EDE74E788B1CC7
:103DF000252E0393F0D00027B946BB46BBF11F0F19
:103E000038D8A6F12003102B0AD8DFE803F02A09DE
:103E100009300909092109090928092D09091F0083
:103E2000A6F13003092B33D92A2E37D11BF0400FCE
:103E300055F8043B40F08280002BA7BF4BF0200BCD
:103E40009946C3F100094BF0280B01E04BF0010B40
:103E5000039B13F8016B0393002ECFD130E04BF09E
:103E6000020B4BF0040BF3E74BF0080BF0E74BF0C1
:103E7000100BEDE7BBF17F0F19D8A6F13003092B2A
:103E8000D2D81BF0400F03D00A2101FB0737DFE730
:103E90000A2101FB09394BF0200BD9E72E2E06D160
:103EA0001BF0400F40F09E804BF0400BD0E76C2E93
:103EB00031D02BD8682E36D06A2E3CD04C2E3AD03A
:103EC000002F46F02003B8BF2BF04002A3F165019C
:103ED000BCBF1FFA82FB0027022901D9612B2FD119
:103EE000073525F00705DFF8ACA2083507271BF0DA
:103EF000080F66D00AEB070B56465E4563D1A4EB6C
:103F00000A0A06EB0A02A9EB07096FE1742E9FD09B
:103F10007A2E9DD0D4E71BF0800F18BF4BF4007BA6
:103F20004BF0800B94E71BF4807F18BF4BF4007BB1
:103F30004BF4807B8CE74BF4207B89E71F4687E7B7
:103F4000A6F16301122900F2F080DFE811F01300FE
:103F50004F00EE00EE00EE00EE004F00EE00EE002F
:103F6000EE00EE00EE00FE00E900EE00EE001B00A9
:103F7000EE00AF0055F8043B8DF8183001270DF125
:103F8000180AB4E755F804AB834BBAF1000F08BF29
:103F90009A461BF0400F14BF39464FF0FF31504690
:103FA00000F07FFF0746A2E7029B4146202098478A
:103FB00000280FDB013EB742F6D34C44A41BB146A8
:103FC00098E74E46F7E716F8010B029B41469847E3
:103FD000002892DA98F8023043F0040388F802309F
:103FE0004FF0FF3420460DB0BDE8F08F1BF0800F7E
:103FF00034D01BF4007F2CD0073525F00705AA46E6
:1040000069685AF8080B2BF010050029ADB237DAB1
:10401000404261EB410145F480650DF1180B0A2324
:104020005A4600F04AFFA0EB0B0301936B0662D5E2
:10403000019B25F001019F4289B240F3A180002E2F
:1040400000F0998015F0100240F09C80BB460D46B0
:1040500023E0AA465AF8040BC117D4E7AA461BF47A
:10406000807F5AF8041B01D10846F5E71BF4007F56
:1040700015BF48B208B241F3C01141F3C031C2E7E5
:1040800050EA0103C9D11BF0400FC6D0002FC4D1A4
:104090002BF0110295B2BB46019740F2064115EA9A
:1040A00001021CBF0BF1010B00222CE02BF01002CF
:1040B0001FFA82FB0A231BF0800C49D01BF400710D
:1040C0001DBF073525F00705AA46AA461ABF5AF8AC
:1040D000080B69685AF8040B50EA010545D12BF02A
:1040E00016051BF0400FADB242D0002F40D12BF08F
:1040F000170295B2019715F0100248D0019B002ECF
:1041000042D103F1010B29075AD4EB0706D5D94553
:104110006FDD0199A9EB0B035F18CB465B4649E0C5
:104120004BF0100B10237826C5E7782B04D1C6F18D
:10413000780343F01003BEE7029B414625209847D1
:104140000028FFF647AF023447E608230026B2E70F
:10415000AA461BF480715AF8040BBDD01BF4007101
:104160001ABFC0B2614680B2B6E72BF0060295B224
:104170000DF1180B54E725F01105ADB2BB468CE7E5
:104180000D46B8E73B460D4603F1020BBBE7DDF8F1
:1041900004B082E7315400002A540000CDE9043213
:1041A0004146029B202098470028FFF613AF049B4E
:1041B000059A01339945F1DCA4EB0B01CC189B4621
:1041C0000AB3029B4146302098470028FFF602AF11
:1041D0008EB901342744019B391B994224DC1D46CA
:1041E0005DBB019AA9EB0B09224455461446914444
:1041F00035E0019F92E7023441463046029B9847E2
:104200000028E7DAE6E640F206410D42E2D015F07A
:10421000020F14BF2B20202015F4806F04F101043D
:10422000414618BF2D20E9E7029B414630209847C0
:10423000002804F10104CEDACCE606AB013D41468C
:10424000585D029B98470028CADAC3E6029B4146A4
:1042500020209847002804F10104FFF6BBAEA9EB2B
:104260000403002BF2DCBFE5704740F6CD4000218F
:1042700000F087BD836800EBC101B3F5004F2CBF90
:1042800051F8220031F81200704700EBC10180683C
:10429000B0F5004F2CBF41F8223021F812307047A2
:1042A00008B50122FFF7E6FFD04008BD8368B3F5EB
:1042B000004F00EBC10108D34B681AB143F0010372
:1042C0004B60704723F00103FAE74B881AB143F0C3
:1042D00001034B80704723F00103FAE753000122EA
:1042E000FFF7D3BFB0F5004F34BF04230823481CA9
:1042F0000833A0EBD300B0FA80F0C0F11F00704784
:104300002DE9F0410D4686680446FFF7C9FFB6F572
:10431000004F014601D3012832D03046FFF7E2FFBB
:1043200004EB80010E6996B9E368012282401343D1
:10433000E36002220D612B4629462046FFF7A5FFC8
:10434000032229462046BDE8F041FFF79EBF022226
:1043500031462046FFF78EFF294603460746204692
:10436000FFF793FF0322334629462046FFF78DFFD0
:1043700039462B462046FFF788FF02223146E1E707
:10438000BDE8F081B2F5802F2CBF08230423D21A98
:104390002DE9F0418C18CD1D25F0070524F0070408
:1043A000641B0026E40805602146AC60EE602046F0
:1043B000FFF798FF421D9200013002F107074FEA14
:1043C000D707A2F110023146B8BF324605F11000FE
:1043D00000F04FFD3A4631462846FFF77FFF33464F
:1043E000324631462846FFF750FFA4EB070828461F
:1043F00031460122FFF75AFF42463946FFF76EFF6A
:104400003B46324639462846FFF73FFF21462846BD
:10441000FFF764FF4346324621462846FFF735FF43
:10442000214628460122FFF741FF3946BDE8F04109
:10443000FFF766BF002070470FB407B504A951F815
:10444000040B0191FBF7E6FE03B05DF804EB04B04A
:104450007047038B13F0070305D10368002B0CBFD3
:10446000002003207047022B05D1408BB0FA80F06A
:10447000400980007047012B05D10368002B0CBF59
:104480000020052070470020704710B50C4600B191
:1044900011B96FF0150010BD081D00F093F8002849
:1044A000F9D1A368032BF6D9F3E72DE9F0410D46C6
:1044B00007461946281D90461E4600F094F804460B
:1044C00038B13346424629463846A446BDE8F04155
:1044D0006047BDE8F08110B4EFF31182202484F32B
:1044E0001288BFF36F8F416110BC0121FBF7C4BE7E
:1044F00038B50C46054658B151B10B6843B14B680D
:1045000033B11C22002100F0B4FC2C61002038BD26
:104510006FF01500FBE770B505460E46FFF7B5FFD7
:10452000041E14DBEFF31182202383F31288BFF300
:104530006F8F6B8B2C8B4FF6FF718B4204F007044F
:1045400007D182F31188BFF36F8F6FF00A04204602
:1045500070BD022C0CD101336B8382F31188BFF341
:104560006F8F0023224631462846FFF79EFFEEE775
:10457000062C14D8DFE804F004131313041A040003
:10458000002333606B683BB9C5E90066ACB9022112
:104590002846FBF771FEDAE71E606E60F6E782F3ED
:1045A0001188BFF36F8F6FF00404D0E782F3118896
:1045B000BFF36F8F6FF08504C9E782F31188BFF3F3
:1045C0006F8FC4E7034658B1426802F00302012A24
:1045D00003D0032A04D1026812B10020986070470A
:1045E0006FF0150070474268816002F00302032AF1
:1045F0004FF0000203460CBF006810465A60704737
:104600007047012801D1EFF30583FEF7FDBC014699
:104610000068FFF7F6BF08B5FBF750FFBDE808409C
:10462000FBF770BF00210120FFF7EBBF61B662B658
:1046300080F31188BFF36F8F704772B6002383F346
:104640001188BFF36F8FBFF34F8F30BF62B6BFF3D8
:104650006F8F704772B6002383F31188BFF36F8F9B
:10466000BFF34F8F20BF80F31188BFF36F8F62B607
:104670007047202809D9B0F1004F08D80138B0FAA6
:1046800080F0C0F11F0040007047082070473E20B6
:10469000704708B5FCF794FB002008BD0369C9B258
:1046A0000C2201FB0233186C00F00700704770B554
:1046B000C9B20369EFF31185202484F31288BFF394
:1046C0006F8F0C2606FB0134246C14F0C00408D054
:1046D000A24206D085F31188BFF36F8F4FF0FF30F1
:1046E00070BD06FB013301221A6485F31188BFF304
:1046F0006F8F436803EBC1035B6898470020EFE7C7
:104700008022FFF7D4BFF8B5069F0469C9B2EFF362
:104710001186202585F31288BFF36F8F0C2505FBCA
:104720000144256C05F0070CBCF1010F0CD1276486
:1047300086F31188BFF36F8FC4E90E23436853F8E3
:10474000313098470020F8BD05F0C005AF4286F330
:104750001188BFF36F8F0CBF6FF077004FF0FF3001
:10476000F1E713B580240094FFF7CDFF02B010BD30
:1047700010B40069CBB21C2403FB0400002110BC60
:104780001047002000F027B91046FEF77DBD4368B2
:104790005B68D3F810350B600020704743685B6896
:1047A00002EA010021EA0201C3F80805C3F80C156A
:1047B0000020704743685B680020C3F80815704705
:1047C00043685B680020C3F80C15704743685A685B
:1047D000D2F8043521EA03000B40C2F80805C2F8FC
:1047E0000C350020704710B503695868F8B188424D
:1047F00019D19C6808685860A14200D198600020D7
:1048000008602AB15A680A609A68596002B99960CA
:10481000002010E0814206D108682060986881423B
:10482000EDD19C60EBE7044600680028F2D1002A35
:10483000E8D16FF0150010BD37B504460022012104
:104840000320FCF7B3F86368DD6901AA002128465C
:1048500000F02BF800280DDB019B2A6819791868F5
:10486000FCF714FF002805DB204603B0BDE830400C
:10487000FCF7AABE03B030BDCA074368006905D47F
:10488000C1F34202012A04D0022A0AD06FF01500B7
:1048900070471B684FF0CC72C3F8242501600020DC
:1048A00070471B684FF0CD62F6E730B54368136080
:1048B000057A446804EBC504A34202D36FF00100FB
:1048C00030BD5C798C4201D00833F0E70020F7E777
:1048D00043681B68D3F88004C3F8800470474268BB
:1048E0001368D3F8100150B1D269002012780A7011
:1048F000C3F81001D3F8102101221A6070474FF05D
:10490000FF30704702680346D2F8580140B95B682F
:10491000DB0706D4D2F82001003818BF0120704709
:104920000120704743681B68D3F80423D20517D5CC
:10493000D3F82021A2B1EFF31182202181F3128854
:10494000BFF36F8FD3F8201131B10021C3F82011CC
:10495000D3F820110121D96082F31188BFF36F8F42
:10496000D3F85831704713B501AA0446FFF79DFFED
:10497000002805DB019B226819791868FCF786FE80
:1049800002B010BD00F150039B009BB203F18043C5
:1049900003F5883300221A601B6870474FF080537C
:1049A000D3F83001421C04BF4FF0704393F8E00F7E
:1049B000831F584258417047004700F031B9C0008A
:1049C00000F1804000F5F830C0F81015C0F814254B
:1049D0007047FEF72DB8FDF7AFBB036803F01F0269
:1049E0005B0902600CBF4FF0A04000207047F7B594
:1049F000019001A8DDE9084716461D46FFF7EDFFC7
:104A0000019BB6F1000C18BF4FF0010C00EB8300C6
:104A10000B1E18BF0123002D43EA4C0314BF4FF0B7
:104A20000C0C4FF0000C002C43EA0C0314BF4FF4A5
:104A3000E06C4FF0000C002F43EA0C03D0F8002785
:104A400014BF4FF4403C4FF0000C43EA0C0322EA41
:104A5000030301B109780EB13678760019430DB120
:104A60002D78AD0031430CB12478240229430FB1D5
:104A70003F783F040C433C43C0F8004703B0F0BD0F
:104A80001FB50DF10F03019300238DF80F10009354
:104A90001A461946FFF7ABFF05B05DF804FB024666
:104AA00011F0010007D04FF0A041D1F8203513607C
:104AB000C1F8203503B900207047FDF70BBDFDF7A5
:104AC000E9BC30B5D0F804312BB10023C0F8043173
:104AD000D0F80431012391F82F2022B30022C0F82E
:104AE0002421D0F82441C0F81C21D0F81C41C0F882
:104AF0000821D0F80821002B79D0002281F82D2040
:104B000091F82F20002A37D14D6B8C6AA5421FBF28
:104B10000523C0F80025C0F80035134683F00103D3
:104B200081F82F3028E0D0F8244114B1C0F82421B6
:104B30000EE0D0F81C216AB3C0F81C41D0F81C214B
:104B40004A6B01324A63D0F8245145B1C0F8244180
:104B5000D0F824210122426181F82F20CBE78C6A12
:104B6000A24204D24C6AA25CC0F81C25C3E791F8AB
:104B70002C201AB10123C361002030BD0A6A12F053
:104B8000400F4FF0010203D0C26181F82D20F3E7FE
:104B90004261B0E7D0F80841002CACD0C0F8082141
:104BA000D0F80841D0F82441002CBFD14A6B8C6A60
:104BB000A242A0D24C6AD0F81855A5544A6B8C6A10
:104BC0000132651EAA424A6308D10A6A540602D419
:104BD0000222C0F80022012202628CE7A242FAD12E
:104BE0000A6A520687D5022381F82D30C4E70120D6
:104BF000C3E7036803F01F025B0902600CBF4FF0BC
:104C0000A0400020704707B5019001A8FFF7F1FF11
:104C1000019A01239340C0F8083503B05DF804FB06
:104C200008B1FCF7FFB87047704740B1C3685878C7
:104C300010F001001EBF1878B0FA80F040097047EC
:104C4000EFF31183202383F31288BFF36F8FFEE706
:104C500008B5FFF7F5FF10B54369044633B90020E6
:104C6000E268537843F00103537010BD9847002861
:104C7000F5D00028B8BF4042E368FF28A8BFFF2056
:104C80001870EDE700F0F5B800F0E5B808B520249D
:104C9000EFF3118384F31288BFF36F8FFFF7CDFC1E
:104CA000F6E7EFF30580003818BF01207047D0E920
:104CB000003213605A600023C0E90033704708B522
:104CC000FFF7F5FF437B23F0020343730023836068
:104CD00008BD38B504460D46FEF710FC637B43F073
:104CE00002036373E5B1A5602B689D4209D16B682F
:104CF000C4E900531C606C6012E06A689A42F6D006
:104D00001B68002BF3D094F90E2093F90E108A4201
:104D1000F3D09142F1DD5A68C4E9003214605C605E
:104D200038BD10B5EFF31184202383F31288BFF34D
:104D30006F8FFEF7A1FB84F31188BFF36F8F10BD57
:104D400010B50146EFF31184202383F31288BFF3DB
:104D50006F8F437B13F0280F0AD183680BB1FFF7E5
:104D6000AEFF4B7B23F004034B730846FEF784FB36
:104D700084F31188BFF36F8F10BD01211838FFF73E
:104D8000DFBF38B504460D46FEF714FDB5F1FF3F11
:104D900008BFB4F1FF3F0246204618D000204FF470
:104DA0007A7447F6FF730146C2FB0431B3F5004F36
:104DB00071F100020BD36FF400429A4243F6FF7286
:104DC0008A4126BFD80B40EA41406FF0004038BD11
:104DD00008B50246FEF7B4FE70B1D0E904319B1A63
:104DE00061EBE272B3F1004F72F1000104DA002AC4
:104DF000ACBF1846002008BD6FF00040FBE738B597
:104E00000246EFF31185202383F31288BFF36F8FDF
:104E10000368CBB1FEF794FE04461046FEF7A2FEEF
:104E200000224FF000438442C0E9042306D1FEF77C
:104E30008FFEFFF7CDFF0021FCF7A4FF002085F3D4
:104E40001188BFF36F8F38BD6FF01500F7E708B515
:104E5000FEF796FF08BD0A44914200F1FF3300D1EE
:104E6000704710B511F8014B03F8014F9142F9D189
:104E700010BD02440346934200D1704703F8011B62
:104E8000F9E710B50139044632B111F8013F00F8D5
:104E9000013B013A002BF7D10021FFF7EAFF204642
:104EA00010BD10B5024601448A42134603D01C7857
:104EB0000132002CF8D1181A10BDF0B5C3F1370734
:104EC0000446FFB203F01F031046082BE6B233D0AE
:104ED000102B3ED06508A40844EA817445EAC175E8
:104EE0002D194FEA910242EB5102290941EA027160
:104EF0006D1842EB1212290A41EA02616D1842EB69
:104F00001222290C41EA02416D1842EB1242AD18FF
:104F100042F10002EC0844EA4274D10804EB840236
:104F2000A6EB4205EDB2092D0CD90134A5F10A0515
:104F300041F10001EDB212E0E40844EA417406F0E8
:104F40000705C908303554EA010200F8015BBCD1FD
:104F5000F0BD240944EA017406F00F050909092D82
:104F600084BFED19EDB2EDE701480068704700001D
:104F7000A80200200D0E000000000000000000004C
:104F8000B44F000000000000D44F000000000000FB
:104F9000F44F00006D11000000000000211C000013
:104FA00000000000E90D000000000000000000000B
:104FB00014500000CC53000060520000A8510000C3
:104FC00050000020DC020020AD0E000000000000B8
:104FD00000000000DB530000705200006C51000024
:104FE0005200002030030020791300000000000070
:104FF00000000000FE530000C4520000C451000035
:10500000560000203C030020BD18000000000000F6
:1050100000000000E9530000885200009051000099
:105020005400002014000020394800000000000057
:10503000000000002D230000B9490000000000001E
:1050400025460000F44F000025490000552E0000C1
:10505000B9490000000000002546000000000000E3
:1050600025460000DD280000B949000000000000CE
:10507000254600000000000025460000000000005A
:10508000254600000000000025460000000000004A
:10509000254600000000000025460000000000003A
:1050A000254600000000000025460000000000002A
:1050B000254600000000000025460000000000001A
:1050C000B11C0000000000002546000000000000A8
:1050D00025460000000000002546000000000000FA
:1050E00025460000000000002546000000000000EA
:1050F00025460000000000002546000000000000DA
:1051000025460000000000002546000000000000C9
:1051100025460000000000002546000000000000B9
:1051200025460000000000002546000000000000A9
:105130002546000000000000254600000000000099
:105140002546000000000000254600000000000089
:105150002546000000000000254600000000000079
:10516000254600000000000025460000F91100005F
:105170008F4700009D470000B5470000C147000071
:10518000CD470000C1130000E74700000000000009
:105190007948000000000000091500000000000030
:1051A00000000000ED150000050F000001470000A1
:1051B00063470000000000009D4600000000000062
:1051C00000000000DF48000009180000D14800007E
:1051D000040000000F0000000100000008000000B3
:1051E0002000000060000000700000000D000000C2
:1051F0000C0000000E0000005000000074000000D1
:10520000A8000000FFFFFFFFFFFFFFFFFFFFFFFF02
:04521000FFFFFFFF9E
:105220000338FDD870470000000000200000000097
:1052300000000B06020000003C52000000000000CD
:10524000BD5300002400020600000020C5530000EA
:105250001E000B11690E0000390E00000000000056
:10526000DD0F00005D0F0000390F000083470000D4
:10527000FFFFFFFF000000500000000000000000E2
:10528000006000400000000000300040000000000E
:105290000000000000000000000098010000010173
:1052A000D1140000A852000000300040B4520000A9
:1052B00001000000BC520000020000001A00000CB7
:1052C0001B00000B00200040010000000000000057
:1052D000E45200000000D601000000003B04002062
:1052E0003A04002000200040F052000001000000BD
:1052F000F852000004000000060000000800000151
:105300000500000207000003744F0000744F000006
:105310009C4F0000A44F0000B44F0000B44F0000A9
:1053200049324320627573206E6F74207265616428
:10533000790A00424D4931363020434849505F498F
:10534000443A203078253032580A0057726F6E6721
:1053500020636869702049440A002A2A2A20426F83
:105360006F74696E67206E524620436F6E6E656380
:10537000742053444B2076332E312E312D6532610B
:10538000393766653235373861202A2A2A0A002AD9
:105390002A2A205573696E67205A657068797220D1
:1053A0004F532076342E312E39392D6666386630CB
:1053B00063353739656562202A2A2A0A00464C413E
:1053C00053485F30005352414D5F3000636C6F6350
:1053D0006B403430303030303030006770696F40AF
:1053E0003530303030303030006932634034303066
:1053F00030333030300000010203040506077561C8
:1054000072744034303030323030300000000000F0
:105410000100000001010000010101010000000085
:1054200069646C65006D61696E00286E756C6C292D
:10543000002A666C6F61742A000000003544000089
:105440000000000093460000000000000000000083
:1054500000000000180000201800002001000000DB
:1054600001000000280000202800002000000000AB
:105470000100000000000000FF000000FFFF0F001F
:1054800090020000480000204800002000000000BA
:085490000000000015E015E02A
:00000001FF
